:020000040800F2
:1000000000500020E1010008290200082902000830
:100010002902000829020008290200080000000047
:10002000000000000000000000000000290200089D
:100030002902000800000000290200082902000827
:1000400029020008290200082902000829020008E4
:1000500029020008290200082902000829020008D4
:1000600029020008290200082902000829020008C4
:1000700029020008290200082902000829020008B4
:1000800029020008290200082902000829020008A4
:100090002902000829020008290200082902000894
:1000A0002902000829020008290200082902000884
:1000B0002902000829020008290200082902000874
:1000C0002902000829020008290200082902000864
:1000D0002902000829020008290200082902000854
:1000E0002902000829020008290200080000000077
:1000F0000000000000000000000000000000000000
:0C01000000000000000000005FF808F1A3
:10010C000348044B834202D0034B03B1184770479A
:10011C000000002000000020000000000548064BF5
:10012C001B1AD90F01EBA301491002D0034B03B1E9
:10013C00184770470000002000000020000000005D
:10014C0010B5064C237843B9FFF7DAFF044B13B113
:10015C000448AFF300800123237010BD0000002081
:10016C0000000000480F000808B5054B1BB10549FD
:10017C000548AFF30080BDE80840FFF7CFBF00BFD4
:10018C000000000004000020480F000870B50D4D61
:10019C000D4C641BA4100026A64209D10B4D0C4C2F
:1001AC0000F0CCFE641BA4100026A64205D170BD45
:1001BC0055F8043B98470136EEE755F8043B984751
:1001CC000136F2E7600F0008600F0008600F0008AE
:1001DC00640F000800F07EFE0B480C490C4A00230B
:1001EC0002E0D458C4500433C4188C42F9D3094AE1
:1001FC00094C002301E013600432A242FBD3FFF749
:10020C00C5FF00F00CF87047000000200000002033
:10021C00680F00080000002038000020FEE780B5C1
:10022C0084B000AF00F040F800F052F800F070F825
:10023C0000F09CF80346FB730023BB6000237B603B
:10024C00FB7B184600F06FF9FB7B184600F0ADF90C
:10025C00FB7B1946D02000F00DFB0346BB73FA7BE9
:10026C00391D07F10803184600F030FB4FF47A7083
:10027C0000F002F800BFF2E780B485B000AF786000
:10028C007B684FF47A7202FB03F3FB6000E000BF63
:10029C00FB685A1EFA60002BF9D100BF00BF14375F
:1002AC00BD4680BC7047000080B400AF074B9B6913
:1002BC00064A43F008039361044BDB69034A43F499
:1002CC008003D36100BFBD4680BC70470010024064
:1002DC0080B400AF0D4B5B680C4A23F44C53536055
:1002EC000A4B5B68094A23F44C435360074B5B6829
:1002FC00064A43F44C535360044B5B68034A43F483
:10030C004C43536000BFBD4680BC7047000C01409D
:10031C0080B500AF144B1B68134A43F400431360C1
:10032C000120FFF7A9FF104B1B680F4A23F4004371
:10033C0013600D4B5B680C4A43F0240353600A4B6B
:10034C00DB69094A43F0B403D361074B1B6A064AC5
:10035C0043F025031362044B1B68034A43F001036B
:10036C00136000BF80BD00BF0058004080B582B054
:10037C0000AF0123FB7113E000F01CF8FB795B006C
:10038C00DBB2184600F048F80346012B05D100F00B
:10039C0037F800F027F8FB7907E0FB790133FB71A4
:1003AC0097F90730002BE7DA002318460837BD46CB
:1003BC0080BD000080B400AF094B1B68084A43F4B1
:1003CC008073136000BF064B5B6903F00103002BC5
:1003DC00F9D0034B5B6900BFBD4680BC704700BFC2
:1003EC000058004080B400AF044B1B68034A43F430
:1003FC000073136000BFBD4680BC704700580040BE
:10040C0080B400AF034B5B69024B9B6900BFBD46D8
:10041C0080BC70470058004080B483B000AF0346E6
:10042C00FB710F4AFB79136100BF0D4B5A6940F207
:10043C0002431340002BF8D0094B5B6903F4806333
:10044C00002B07D0064B5B69054A23F4806353618C
:10045C00002300E0012318460C37BD4680BC7047D2
:10046C000058004080B483B000AF0346FB7100BF5E
:10047C000A4B5B6903F08003002BF9D0074AFB7928
:10048C00136100BF054B5B6903F00403002BF9D02B
:10049C0000BF00BF0C37BD4680BC70470058004001
:1004AC0080B400AF00BF064B5B6903F04003002B28
:1004BC00F9D0034B1B69DBB21846BD4680BC7047B4
:1004CC000058004080B500AF054B1B68044A23F46C
:1004DC0080631360FFF794FFFFF784FF00BF80BDBC
:1004EC000058004080B582B000AF0346FB710B464C
:1004FC00BB7113467B71FFF75DFF7B795B00DBB251
:10050C001846FFF789FFFFF77BFFBB791846FFF70B
:10051C00A9FFFB791846FFF7A5FFFFF763FF00BFA4
:10052C000837BD4680BD80B582B000AF0346FB7175
:10053C00FB79184600F00CF8FB79184600F017F818
:10054C00FB79184600F022F800BF0837BD4680BD85
:10055C0080B582B000AF0346FB71FB791A46E021EF
:10056C00B620FFF7BFFF00BF0837BD4680BD80B582
:10057C0082B000AF0346FB71FB791A46F421572079
:10058C00FFF7B0FF00BF0837BD4680BD80B582B015
:10059C0000AF0346FB71FB791A46F5215020FFF79B
:1005AC00A1FF00BF0837BD4680BD80B582B000AF4B
:1005BC000346FB71FB79184600F008F8FB791846E6
:1005CC0000F060F800BF0837BD4680BD80B584B030
:1005DC0000AF0346FB71FB791946892000F04AF9FC
:1005EC000346FB73FB791946882000F043F9034658
:1005FC00BB73FB7B1BB21B021AB2BB7B1BB213433C
:10060C001BB29AB21C4B1A80FB7919468B2000F056
:10061C0031F90346FB73FB7919468A2000F02AF95D
:10062C000346BB73FB7B1BB21B021AB2BB7B1BB218
:10063C0013431AB2114B1A80FB7919468D2000F026
:10064C0019F90346FB73FB7919468C2000F012F95B
:10065C000346BB73FB7B1BB21B021AB2BB7B1BB2E8
:10066C0013431AB2064B1A804FF47A70FFF704FE4C
:10067C0000BF1037BD4680BD1C00002020000020AC
:10068C002200002080B584B000AF0346FB71FB79DB
:10069C0019468F2000F0EEF80346FB73FB791946E0
:1006AC008E2000F0E7F80346BB73FB7B1BB21B02EA
:1006BC001AB2BB7B1BB213431BB29AB2644B1A80A7
:1006CC00FB791946912000F0D5F80346FB73FB79B2
:1006DC001946902000F0CEF80346BB73FB7B1BB28F
:1006EC001B021AB2BB7B1BB213431AB2594B1A80B2
:1006FC00FB791946932000F0BDF80346FB73FB7998
:10070C001946922000F0B6F80346BB73FB7B1BB274
:10071C001B021AB2BB7B1BB213431AB24E4B1A808C
:10072C00FB791946952000F0A5F80346FB73FB797D
:10073C001946942000F09EF80346BB73FB7B1BB25A
:10074C001B021AB2BB7B1BB213431AB2434B1A8067
:10075C00FB791946972000F08DF80346FB73FB7963
:10076C001946962000F086F80346BB73FB7B1BB240
:10077C001B021AB2BB7B1BB213431AB2384B1A8042
:10078C00FB791946992000F075F80346FB73FB7949
:10079C001946982000F06EF80346BB73FB7B1BB226
:1007AC001B021AB2BB7B1BB213431AB22D4B1A801D
:1007BC00FB7919469B2000F05DF80346FB73FB792F
:1007CC0019469A2000F056F80346BB73FB7B1BB20C
:1007DC001B021AB2BB7B1BB213431AB2224B1A80F8
:1007EC00FB7919469D2000F045F80346FB73FB7915
:1007FC0019469C2000F03EF80346BB73FB7B1BB2F2
:10080C001B021AB2BB7B1BB213431AB2174B1A80D2
:10081C00FB7919469F2000F02DF80346FB73FB79FA
:10082C0019469E2000F026F80346BB73FB7B1BB2D7
:10083C001B021AB2BB7B1BB213431AB20C4B1A80AD
:10084C004FF47A70FFF718FD00BF1037BD4680BD1E
:10085C001E0000202400002026000020280000207C
:10086C002A0000202C0000202E0000203000002048
:10087C003200002080B582B000AF03460A46FB71FF
:10088C001346BB71FFF796FDBB795B00DBB21846D4
:10089C00FFF7C2FDFFF7B4FDFB791846FFF7E2FD49
:1008AC00FFF788FD97F906305B005BB243F001035C
:1008BC005BB2DBB21846FFF7AFFDFFF703FEFFF7A5
:1008CC00EFFD034618460837BD4680BD80B584B0A1
:1008DC0000AFF860B9601346FB71FB79184600F065
:1008EC0033F80246FB681A60FB79184600F055F89D
:1008FC000246BB681A60FB681B68184600F076F865
:10090C000246FB681A60BB681B68184600F0AEF81C
:10091C000246BB681A60FB681B680A4A82FB03121A
:10092C005211DB17D21AFB681A60BB681B68054AA8
:10093C00A2FB03235A09BB681A6000BF1037BD46DF
:10094C0080BD00BF1F85EB5180B584B000AF03465E
:10095C00FB71FB791946FC20FFF78CFF0346FB73F8
:10096C00FB791946FB20FFF785FF0346BB73FB7928
:10097C001946FA20FFF77EFF03467B737B7B1A0335
:10098C00BB7B1B011343FA7B1209D2B21343BB602E
:10099C00BB6818461037BD4680BD80B584B000AF2B
:1009AC000346FB71FB791946F920FFF763FF0346F9
:1009BC00FB73FB791946F820FFF75CFF0346BB730A
:1009CC00FB791946F720FFF755FF03467B737B7BBA
:1009DC001A03BB7B1B011343FA7B1209D2B21343DC
:1009EC00BB60BB6818461037BD4680BD80B487B06D
:1009FC0000AF78607B68DA10184B1B885B00D31A49
:100A0C00174AB2F9002002FB03F3DB127B617B680F
:100A1C001B11124A12889B1A7A6812110F49098805
:100A2C00521A02FB03F31B130E4AB2F9002002FB0D
:100A3C0003F39B133B617A693B6913440A4A1360C5
:100A4C00094B1A6813469B00134480331B12FB603E
:100A5C00FB6818461C37BD4680BC70471C00002044
:100A6C002000002022000020340000202DE9B00FCF
:100A7C00B7B000AFC7F8BC00C04B1B685B10A3F548
:100A8C007A43DA171C461546C7E93245D7E93223B3
:100A9C004FF000044FF00005940844EA83749D1055
:100AAC00D7E932234FF000004FF00001900840EAE4
:100ABC008370991000FB05F204FB01F31344A4FBB3
:100ACC0000894B4499464FF000004FF000014FEA6B
:100ADC00D82040EA49504FEAE921A94BB3F900303C
:100AEC001BB2DA17C7F88830C7F88C20D7E9224533
:100AFC00234603FB01F22B4600FB03F3134422466F
:100B0C00A0FB0221C7F89410C7F89020D7F89420C6
:100B1C001344C7F89430D7E92434C7E93034C7E913
:100B2C003034984BB3F900301BB2DA17C7F8803069
:100B3C00C7F88420D7F8C830D7E920452A4602FBED
:100B4C0003F2D7F8CC30214601FB03F31A44D7F853
:100B5C00C8302146A3FB01AB02EB0B039B461AEBFF
:100B6C000A033B624BEB0B037B62D7E90801D7E925
:100B7C0030231418BC614B41FB61D7E90634C7E93B
:100B8C003034D7E930234FF000004FF000019008CB
:100B9C0040EA837099107C4BB3F900301B04DA17D0
:100BAC00BB67FA67D7E91E452346C3183B612B4642
:100BBC0041EB03037B61D7E90434C7E93034734B51
:100BCC00B3F900301BB2DA173B677A67D7E93223E7
:100BDC004FF000044FF00005940844EA83749D1014
:100BEC00D7E932234FF000004FF00001900840EAA3
:100BFC008370991000FB05F204FB01F31344A4FB72
:100C0C000021C7F8B410C7F8B020D7F8B4201344AB
:100C1C00C7F8B4304FF000024FF00003D7E92C4571
:100C2C0021464A0B204629460C4642EAC4424B1345
:100C3C00D7E91C45294602FB01F0214601FB03F1D3
:100C4C0001442046A0FB0232C7F8AC20C7F8A830FC
:100C5C00D7F8AC30CB18C7F8AC304FF000004FF0E1
:100C6C000001D7E92A452346D8082A4640EA4270B3
:100C7C002B46D910464BB3F900301BB2DA17BB66C2
:100C8C00FA66D7F8C830D7E91A894A4602FB03F24C
:100C9C00D7F8CC30444604FB03F31A44D7F8C830D9
:100CAC004446A3FB0434C7F8A440C7F8A030D7F8D7
:100CBC00A430D318C7F8A4304FF000024FF0000353
:100CCC00D7E9288944466208CC4642EACC724C46A5
:100CDC00631084183C6641EB03037B664FF0000203
:100CEC004FF00003D7E9184521468A0C20462946C7
:100CFC000C4642EA84328B14C7E93223D7E93223FB
:100D0C0012F50041B96543F10003FB65214B1B88CB
:100D1C009BB200223B657A65D7E916342246D7E9A7
:100D2C001489414601FB02F24D4618462146034602
:100D3C0003FB05F3134402464146A2FB0121C7F80D
:100D4C009C10C7F89820D7F89C201344C7F89C3007
:100D5C004FF000024FF00003D7E926452146CA0B9D
:100D6C00204629460C4642EA4442CB13C7E93223BB
:100D7C00D7E9322313430FD100239FE03400002026
:100D8C002C0000202A000020280000202600002033
:100D9C00240000201E000020D7F8BC30C3F58013BF
:100DAC000022BB64FA64D7E930234FF000004FF007
:100DBC000001100B40EA03501913D7E912341A46FC
:100DCC00121A3A64234663EB01037B643A6C40F6D7
:100DDC00354302FB03F3C7F8D430D7F8D430002BDB
:100DEC0009DBD7F8D4305A00D7F8C830B2FBF3F38C
:100DFC00C7F8D43008E0D7F8C830D7F8D420B2FB05
:100E0C00F3F35B00C7F8D4302F4BB3F9003019461D
:100E1C00D7F8D430DB08D7F8D420D20802FB03F380
:100E2C005B0B01FB03F31B13DA17BB60FA60D7E90A
:100E3C000234C7E93234D7F8D4309B081A46234B16
:100E4C00B3F9003002FB03F35B13DA173B607A60F3
:100E5C00D7E90034C7E93034D7E93201D7E9302378
:100E6C008418BC6341EB0303FB63194BB3F90030EB
:100E7C001BB2DA173B637A63D7E90E452346D7E9F1
:100E8C000C0102469B18BB620B462A4642EB03033D
:100E9C00FB624FF000024FF00003D7E90A452146F0
:100EAC000A09204629460C4642EA04720B11D7F86F
:100EBC00D4301344C7F8D430D7F8D4301846DC37C4
:100ECC00BD46BDE8B00F7047320000203000002056
:100EDC002E00002080B400AF154B1B68144A43F061
:100EEC0001031360124B5A681149124B13404B60AB
:100EFC000F4B1B680E4A23F0847323F4803313606A
:100F0C000B4B1B680A4A23F480231360084B5B6865
:100F1C00074A23F4FE035360054B4FF41F029A60FB
:100F2C00054B4FF000629A6000BFBD4680BC704715
:100F3C00001002400000FFF800ED00E0F8B500BF23
:100F4C00F8BC08BC9E467047F8B500BFF8BC08BC9E
:040F5C009E467047F6
:040F6000750100080F
:040F64004D01000833
:04000005080001E10D
:00000001FF
