:020000040800F2
:1000000000500020E1010008290200082902000830
:100010002902000829020008290200080000000047
:10002000000000000000000000000000290200089D
:100030002902000800000000290200082902000827
:1000400029020008290200082902000829020008E4
:1000500029020008290200082902000829020008D4
:1000600029020008290200082902000829020008C4
:1000700029020008290200082902000829020008B4
:1000800029020008290200082902000829020008A4
:100090002902000829020008290200082902000894
:1000A0002902000829020008290200082902000884
:1000B0002902000829020008290200082902000874
:1000C0002902000829020008290200082902000864
:1000D0002902000829020008290200082902000854
:1000E0002902000829020008290200080000000077
:1000F0000000000000000000000000000000000000
:0C01000000000000000000005FF808F1A3
:10010C000348044B834202D0034B03B1184770479A
:10011C000000002000000020000000000548064BF5
:10012C001B1AD90F01EBA301491002D0034B03B1E9
:10013C00184770470000002000000020000000005D
:10014C0010B5064C237843B9FFF7DAFF044B13B113
:10015C000448AFF300800123237010BD0000002081
:10016C0000000000D802000808B5054B1BB105497A
:10017C000548AFF30080BDE80840FFF7CFBF00BFD4
:10018C000000000004000020D802000870B50D4DDE
:10019C000D4C641BA4100026A64209D10B4D0C4C2F
:1001AC0000F094F8641BA4100026A64205D170BD83
:1001BC0055F8043B98470136EEE755F8043B984751
:1001CC000136F2E7F0020008F0020008F002000825
:1001DC00F402000800F054F80B480C490C4A0023B8
:1001EC0002E0D458C4500433C4188C42F9D3094AE1
:1001FC00094C002301E013600432A242FBD3FFF749
:10020C00C5FF00F015F8704700000020000000202A
:10021C00F8020008000000201C000020FEE74FF44C
:10022C007A73584300B9704700BF0138FAE70000F1
:10023C0008B5124A936943F004039361A2F5843222
:10024C00136823F470031360136843F48013136072
:10025C00136823F470231360136843F48023136032
:10026C00936813F0100FD36814BF43F0200323F0EE
:10027C002003D3606420FFF7D2FFF1E700100240A7
:10028C000F4B1A6842F001021A6059680D4A0A4075
:10029C005A601A6822F0847222F480321A601A684A
:1002AC0022F480221A605A6822F4FE025A604FF43B
:1002BC001F029A60044B4FF000629A60704700BFB7
:1002CC00001002400000FFF800ED00E0F8B500BFA0
:1002DC00F8BC08BC9E467047F8B500BFF8BC08BC1B
:0402EC009E46704773
:0402F000750100088C
:0402F4004D010008B0
:04000005080001E10D
:00000001FF
