:020000040800F2
:1000000000500020710B0008B90B0008B90B000864
:10001000B90B0008B90B0008B90B0008000000007C
:10002000000000000000000000000000B90B000804
:10003000B90B000800000000B90B0008B90B00085C
:10004000B90B0008B90B0008B90B0008B90B000880
:10005000B90B0008B90B0008B90B0008B90B000870
:10006000B90B0008B90B0008B90B0008B90B000860
:10007000B90B0008B90B0008B90B0008B90B000850
:10008000B90B0008B90B0008B90B0008B90B000840
:10009000B90B0008B90B0008B90B0008B90B000830
:1000A000B90B0008B90B0008B90B0008B90B000820
:1000B000B90B0008B90B0008B90B0008B90B000810
:1000C000B90B0008B90B0008B90B0008B90B000800
:1000D000B90B0008B90B0008B90B0008B90B0008F0
:1000E000B90B0008B90B0008B90B000800000000AC
:1000F0000000000000000000000000000000000000
:0C01000000000000000000005FF808F1A3
:1001100081F0004102E000BF83F0004330B54FEAB8
:1001200041044FEA430594EA050F08BF90EA020F25
:100130001FBF54EA000C55EA020C7FEA645C7FEAB8
:10014000655C00F0E2804FEA5454D4EB5555B8BFDB
:100150006D420CDD2C4480EA020281EA030382EA4C
:10016000000083EA010180EA020281EA0303362DDE
:1001700088BF30BD11F0004F4FEA01314FF4801CB1
:100180004CEA113102D0404261EB410113F0004FC3
:100190004FEA03334CEA133302D0524263EB43037A
:1001A00094EA050F00F0A780A4F10104D5F1200E18
:1001B0000DDB02FA0EFC22FA05F2801841F1000173
:1001C00003FA0EF2801843FA05F359410EE0A5F147
:1001D00020050EF1200E012A03FA0EFC28BF4CF078
:1001E000020C43FA05F3C01851EBE37101F000452E
:1001F00007D54FF0000EDCF1000C7EEB00006EEB3B
:100200000101B1F5801F1BD3B1F5001F0CD34908C4
:100210005FEA30004FEA3C0C04F101044FEA44521B
:1002200012F5800F80F09A80BCF1004F08BF5FEAA2
:10023000500C50F1000041EB045141EA050130BD82
:100240005FEA4C0C404141EB0101013C28BFB1F594
:10025000801FE9D291F0000F04BF01460020B1FADF
:1002600081F308BF2033A3F10B03B3F120020CDAB2
:100270000C3208DD02F1140CC2F10C0201FA0CF090
:1002800021FA02F10CE002F11402D8BFC2F1200CF5
:1002900001FA02F120FA0CFCDCBF41EA0C019040AB
:1002A000E41AA2BF01EB0451294330BD6FEA0404F4
:1002B0001F3C1CDA0C340EDC04F11404C4F12002DF
:1002C00020FA04F001FA02F340EA030021FA04F3F1
:1002D00045EA030130BDC4F10C04C4F1200220FA48
:1002E00002F001FA04F340EA0300294630BD21FA86
:1002F00004F0294630BD94F0000F83F4801306BF4C
:1003000081F480110134013D4EE77FEA645C18BF3F
:100310007FEA655C29D094EA050F08BF90EA020FD6
:1003200005D054EA000C04BF1946104630BD91EACE
:10033000030F1EBF0021002030BD5FEA545C05D1D1
:100340004000494128BF41F0004130BD14F5800410
:100350003CBF01F5801130BD01F0004545F0FE4184
:1003600041F470014FF0000030BD7FEA645C1ABFB9
:10037000194610467FEA655C1CBF0B46024650EAF0
:10038000013406BF52EA033591EA030F41F400211C
:1003900030BD00BF90F0000F04BF0021704730B5A2
:1003A0004FF4806404F132044FF000054FF0000177
:1003B00050E700BF90F0000F04BF0021704730B538
:1003C0004FF4806404F1320410F0004548BF40420D
:1003D0004FF000013EE700BF42004FEAE2014FEA62
:1003E00031014FEA02701FBF12F07F4393F07F4F3D
:1003F00081F06051704732F07F4208BF704793F040
:100400007F4F04BF41F40021704730B54FF4607452
:1004100001F0004521F000411CE700BF50EA010255
:1004200008BF704730B54FF000050AE050EA0102FE
:1004300008BF704730B511F0004502D5404261EB6E
:1004400041014FF4806404F132045FEA915C3FF4AF
:10045000D8AE4FF003025FEADC0C18BF03325FEA4C
:10046000DC0C18BF033202EBDC02C2F1200300FAFD
:1004700003FC20FA02F001FA03FE40EA0E0021FA22
:1004800002F11444BDE600BF70B54FF0FF0C4CF410
:10049000E06C1CEA11541DBF1CEA135594EA0C0FC2
:1004A00095EA0C0F00F0DEF82C4481EA030621EAFD
:1004B0004C5123EA4C5350EA013518BF52EA033538
:1004C00041F4801143F4801338D0A0FB02CE4FF0EA
:1004D0000005E1FB02E506F00042E0FB03E54FF01A
:1004E0000006E1FB03569CF0000F18BF4EF0010E12
:1004F000A4F1FF04B6F5007F64F5407404D25FEA0E
:100500004E0E6D4146EB060642EAC62141EA5551C0
:100510004FEAC52040EA5E504FEACE2EB4F1FD0C02
:1005200088BFBCF5E06F1ED8BEF1004F08BF5FEA80
:10053000500E50F1000041EB045170BD06F0004632
:1005400046EA010140EA020081EA0301B4EB5C04DF
:10055000C2BFD4EB0C0541EA045170BD41F48011D7
:100560004FF0000E013C00F3AB8014F1360FDEBFFC
:10057000002001F0004170BDC4F10004203C35DAD8
:100580000C341BDC04F11404C4F1200500FA05F35B
:1005900020FA04F001FA05F240EA020001F00042FC
:1005A00021F0004110EBD37021FA04F642EB060172
:1005B0005EEA430E08BF20EAD37070BDC4F10C049C
:1005C000C4F1200500FA04F320FA05F001FA04F260
:1005D00040EA020001F0004110EBD37041F100014C
:1005E0005EEA430E08BF20EAD37070BDC4F1200557
:1005F00000FA05F24EEA020E20FA04F301FA05F2BF
:1006000043EA020321FA04F001F0004121FA04F266
:1006100020EA020000EBD3705EEA430E08BF20EA36
:10062000D37070BD94F0000F0FD101F00046400070
:1006300041EB010111F4801F08BF013CF7D041EAF2
:10064000060195F0000F18BF704703F000465200F6
:1006500043EB030313F4801F08BF013DF7D043EAC7
:100660000603704794EA0C0F0CEA135518BF95EA7D
:100670000C0F0CD050EA410618BF52EA4306D1D104
:1006800081EA030101F000414FF0000070BD50EA23
:10069000410606BF1046194652EA430619D094EAAD
:1006A0000C0F02D150EA013613D195EA0C0F05D197
:1006B00052EA03361CBF104619460AD181EA0301EB
:1006C00001F0004141F0FE4141F470014FF00000A3
:1006D00070BD41F0FE4141F4780170BD70B54FF03E
:1006E000FF0C4CF4E06C1CEA11541DBF1CEA1355BE
:1006F00094EA0C0F95EA0C0F00F0A7F8A4EB0504A0
:1007000081EA030E52EA03354FEA013100F0888096
:100710004FEA03334FF0805545EA131343EA12635F
:100720004FEA022245EA111545EA10654FEA002614
:100730000EF000419D4208BF964244F1FD0404F5CD
:10074000407402D25B084FEA3202B61A65EB030529
:100750005B084FEA32024FF480104FF4002CB6EBE6
:10076000020E75EB030E22BFB61A754640EA0C0066
:100770005B084FEA3202B6EB020E75EB030E22BFA6
:10078000B61A754640EA5C005B084FEA3202B6EBE7
:10079000020E75EB030E22BFB61A754640EA9C00A6
:1007A0005B084FEA3202B6EB020E75EB030E22BF76
:1007B000B61A754640EADC0055EA060E18D04FEA34
:1007C000051545EA16754FEA06164FEAC30343EAD4
:1007D00052734FEAC2025FEA1C1CC0D111F4801FA1
:1007E0000BD141EA00014FF000004FF0004CB6E79A
:1007F00011F4801F04BF01430020B4F1FD0C88BF39
:10080000BCF5E06F3FF6AFAEB5EB030C04BFB6EB43
:10081000020C5FEA500C50F1000041EB045170BD36
:100820000EF0004E4EEA113114EB5C04C2BFD4EB63
:100830000C0541EA045170BD41F480114FF0000EE7
:10084000013C90E645EA060E8DE60CEA135594EA63
:100850000C0F08BF95EA0C0F3FF43BAF94EA0C0F66
:100860000AD150EA01347FF434AF95EA0C0F7FF4DB
:1008700025AF104619462CE795EA0C0F06D152EA2F
:1008800003353FF4FDAE1046194622E750EA410613
:1008900018BF52EA43067FF4C5AE50EA41047FF424
:1008A0000DAF52EA43057FF4EBAE12E74FF0FF3C89
:1008B00006E000BF4FF0010C02E000BF4FF0010C5A
:1008C0004DF804CD4FEA410C7FEA6C5C4FEA430CD3
:1008D00018BF7FEA6C5C1BD001B050EA410C0CBF22
:1008E00052EA430C91EA030F02BF90EA020F002084
:1008F000704710F1000F91EA030F58BF994208BFEB
:1009000090422CBFD8176FEAE37040F001007047A7
:100910004FEA410C7FEA6C5C02D150EA013C07D1FE
:100920004FEA430C7FEA6C5CD6D152EA033CD3D049
:100930005DF8040B704700BF8446104662468C4643
:100940001946634600E000BF01B5FFF7B7FF002876
:1009500048BF10F1000F01BD4DF808EDFFF7F4FF9F
:100960000CBF012000205DF808FB00BF4DF808ED2A
:10097000FFF7EAFF34BF012000205DF808FB00BF4D
:100980004DF808EDFFF7E0FF94BF012000205DF86F
:1009900008FB00BF4DF808EDFFF7CEFF94BF012024
:1009A00000205DF808FB00BF4DF808EDFFF7C4FF1D
:1009B00034BF012000205DF808FB00BF4A0011D2BF
:1009C00012F5001211D20DD56FF47873B3EB6252A9
:1009D0000ED44FEAC12343F0004343EA505323FAB5
:1009E00002F070474FF00000704750EA013002D12A
:1009F0004FF0FF3070474FF0000070474FEA410260
:100A0000B2F1E04324BFB3F5001CDCF1FE5C0DD96C
:100A100001F0004C4FEAC0024CEA5070B2F1004FB6
:100A200040EB830008BF20F00100704711F0804FB9
:100A300021D113F13872BCBF01F00040704741F47E
:100A400080114FEA5252C2F11802C2F1200C10FA82
:100A50000CF320FA02F018BF40F001004FEAC12366
:100A60004FEAD32303FA0CFC40EA0C0023FA02F30A
:100A70004FEA4303CCE77FEA625307D150EA0133E0
:100A80001EBF4FF0FE4040F44000704701F00040B0
:100A900040F0FE4040F40000704700BF0348044BA4
:100AA000834202D0034B03B1184770470000002077
:100AB00000000020000000000548064B1B1AD90F5B
:100AC00001EBA301491002D0034B03B11847704753
:100AD00000000020000000200000000010B5064CBF
:100AE000237843B9FFF7DAFF044B13B10448AFF39F
:100AF00000800123237010BD0000002000000000D2
:100B0000AC0F000808B5054B1BB105490548AFF30C
:100B10000080BDE80840FFF7CFBF00BF0000000025
:100B200004000020AC0F000870B50D4D0D4C641B87
:100B3000A4100026A64209D10B4D0C4C00F036FA49
:100B4000641BA4100026A64205D170BD55F8043BD5
:100B500098470136EEE755F8043B98470136F2E72F
:100B6000C40F0008C40F0008C40F0008C80F000815
:100B700000F0E8F90B480C490C4A002302E0D45875
:100B8000C4500433C4188C42F9D3094A094C0023D9
:100B900001E013600432A242FBD3FFF7C5FF00F06F
:100BA0000FF870470000002000000020CC0F000864
:100BB000000000201C000020FEE7000000000000F4
:100BC00080B582B000AF00F053F800F06BF800F091
:100BD00089F800F0B5F80346FB704FF000037B6026
:100BE0007868FFF7F9FB12A3D3E90023FFF7D2FEE1
:100BF0000346002B02D04FF000037B60FB7879683E
:100C0000184600F045F97868FFF7E6FB0AA3D3E938
:100C10000023FFF783FA02460B4610461946FFF7FA
:100C2000EDFE03467B60322000F00AF8D8E700BFF3
:100C30006666666666660A409A9999999999B93F77
:100C400080B485B000AF78607B684FF47A7202FBA5
:100C500003F3FB6000E000BFFB685A1EFA60002B44
:100C6000F9D100BF00BF1437BD4680BC70470000FB
:100C700080B400AF0A4B9B69094A43F008039361B3
:100C8000074B9B69064A43F001039361044BDB6900
:100C9000034A43F48003D36100BFBD4680BC704764
:100CA0000010024080B400AF0D4B5B680C4A23F487
:100CB0004C5353600A4B5B68094A23F44C4353601E
:100CC000074B5B68064A43F44C535360044B5B6824
:100CD000034A43F44C43536000BFBD4680BC704799
:100CE000000C014080B500AF144B1B68134A43F45D
:100CF000004313600120FFF7A3FF104B1B680F4A4E
:100D000023F4004313600D4B5B680C4A43F024034B
:100D100053600A4BDB69094A43F0B403D361074BC4
:100D20001B6A064A43F025031362044B1B68034AFF
:100D300043F00103136000BF80BD00BF00580040B6
:100D400080B582B000AF0123FB7113E000F01CF806
:100D5000FB795B00DBB2184600F060F80346012B1C
:100D600005D100F037F800F027F8FB7907E0FB79B0
:100D70000133FB7197F90730002BE7DA002318469F
:100D80000837BD4680BD000080B400AF094B1B682A
:100D9000084A43F48073136000BF064B5B6903F09D
:100DA0000103002BF9D0034B5B6900BFBD4680BC3B
:100DB000704700BF0058004080B400AF044B1B6870
:100DC000034A43F40073136000BFBD4680BC704704
:100DD0000058004080B400AF034B5B69024B9B6935
:100DE00000BFBD4680BC70470058004080B400AFD3
:100DF000094B5B6903F48063002B07D0064B5B69EA
:100E0000054A23F480635361002300E00123184660
:100E1000BD4680BC704700BF0058004080B582B01E
:100E200000AF0346FB71094AFB79136100BF074B12
:100E30005A6940F202431340002BF8D0FFF7D6FF67
:100E4000034618460837BD4680BD00BF0058004025
:100E500080B483B000AF0346FB7100BF0A4B5B69EF
:100E600003F08003002BF9D0074AFB79136100BF20
:100E7000054B5B6903F00403002BF9D000BF00BFF2
:100E80000C37BD4680BC7047005800400000000091
:100E900080B584B000AF03463960FB713868FFF756
:100EA0009BFA11A3D3E90023FFF718FC02460B4677
:100EB000104619460EA3D3E90023FFF7E5FA0246D0
:100EC0000B4610461946FFF779FD0346FB81FA8968
:100ED000FB791146184600F00FF800BF1037BD46E9
:100EE00080BD00BFAFF300806666666666660A4036
:100EF0000000000000FEAF4080B584B000AF0346A4
:100F00000A46FB711346BB80FFF73EFFFB795B008F
:100F1000DBB21846FFF782FFFFF75CFFBB881B0AB6
:100F20009BB2FB73FB7B1846FFF792FFBB88DBB2DB
:100F30001846FFF78DFFFFF73FFF00BF1037BD4694
:100F400080BD000080B400AF154B1B68144A43F00D
:100F500001031360124B5A681149124B13404B6046
:100F60000F4B1B680E4A23F0847323F48033136005
:100F70000B4B1B680A4A23F480231360084B5B6801
:100F8000074A23F4FE035360054B4FF41F029A6097
:100F9000054B4FF000629A6000BFBD4680BC7047B1
:100FA000001002400000FFF800ED00E0F8B500BFBF
:100FB000F8BC08BC9E467047F8B500BFF8BC08BC3A
:040FC0009E46704792
:040FC400050B000811
:040FC800DD0A000836
:0400000508000B7173
:00000001FF
