:020000040800F2
:1000000000500020E1010008290200082902000830
:100010002902000829020008290200080000000047
:10002000000000000000000000000000290200089D
:100030002902000800000000290200082902000827
:1000400029020008290200082902000829020008E4
:1000500029020008290200082902000829020008D4
:1000600029020008290200082902000829020008C4
:1000700029020008290200082902000829020008B4
:1000800029020008290200082902000829020008A4
:100090002902000829020008290200082902000894
:1000A0002902000829020008290200082902000884
:1000B0002902000829020008290200082902000874
:1000C0002902000829020008290200082902000864
:1000D0002902000829020008290200082902000854
:1000E0002902000829020008290200080000000077
:1000F0000000000000000000000000000000000000
:0C01000000000000000000005FF808F1A3
:10010C000348044B834202D0034B03B1184770479A
:10011C000000002000000020000000000548064BF5
:10012C001B1AD90F01EBA301491002D0034B03B1E9
:10013C00184770470000002000000020000000005D
:10014C0010B5064C237843B9FFF7DAFF044B13B113
:10015C000448AFF300800123237010BD0000002081
:10016C0000000000CC0D000808B5054B1BB105497B
:10017C000548AFF30080BDE80840FFF7CFBF00BFD4
:10018C000000000004000020CC0D000870B50D4DDF
:10019C000D4C641BA4100026A64209D10B4D0C4C2F
:1001AC0000F00EFE641BA4100026A64205D170BD03
:1001BC0055F8043B98470136EEE755F8043B984751
:1001CC000136F2E7E40D0008E40D0008E40D000828
:1001DC00E80D000800F0C0FD0B480C490C4A002348
:1001EC0002E0D458C4500433C4188C42F9D3094AE1
:1001FC00094C002301E013600432A242FBD3FFF749
:10020C00C5FF00F00CF87047000000200000002033
:10021C00EC0D00080000002038000020FEE780B53F
:10022C0084B000AF00F038F800F050F800F08EF811
:10023C000023BB6000237B6000F0AEF800F058F99F
:10024C0000F07CF9D02000F03AF90346FB733A1D1C
:10025C0007F108031146184600F090FA4FF47A7033
:10026C0000F002F800BFF2E780B485B000AF786010
:10027C007B684FF47A7202FB03F3FB6000E000BF73
:10028C00FB685A1EFA60002BF9D100BF00BF14376F
:10029C00BD4680BC7047000080B400AF0A4B9B6920
:1002AC00094A43F004039361074B9B69064A43F0E8
:1002BC0001039361044B9B69034A43F4805393619C
:1002CC0000BFBD4680BC70470010024080B400AF38
:1002DC001D4B1B681C4A23F04C5323F44C13136026
:1002EC00194B1B68184A23F04C4323F44C0313603E
:1002FC00154B1B68144A43F0405343F440131360EE
:10030C00114B1B68104A43F0004343F40003136085
:10031C000D4B1B680C4A43F0006313600A4BDB68FF
:10032C00094A43F04003D360074B1B68064A43F469
:10033C0040331360044BDB68034A43F01003D36073
:10034C0000BFBD4680BC70470008014080B400AFC0
:10035C00104B00221A600F4B1B680E4A43F003032C
:10036C0013600C4B1B680B4A43F004031360094BDE
:10037C001B68084A43F018031360064B1B68054AB8
:10038C0043F440731360034B00225A6000BFBD4618
:10039C0080BC70470030014080B400AF044B1B6838
:1003AC00034A43F04003136000BFBD4680BC704756
:1003BC000030014080B400AF044BDB68034A23F0EB
:1003CC001003D36000BFBD4680BC704700080140DD
:1003DC0080B400AF044BDB68034A43F01003D360D6
:1003EC0000BFBD4680BC70470008014080B400AF20
:1003FC0000BF0A4B9B6803F08003002BF9D100BFB0
:10040C00064B9B6803F00203002BF9D0034BDB680F
:10041C00024B9B6800BFBD4680BC7047003001405A
:10042C0080B582B000AF0346FB7100BF074B9B68E1
:10043C0003F00203002BF9D0044AFB79D360FFF7D9
:10044C00D5FF00BF0837BD4680BD00BF003001405E
:10045C0080B400AF00BF0B4B9B6803F08003002BF4
:10046C00F9D1084B0022DA6000BF064B9B6803F001
:10047C000103002BF9D0034BDB68DBB21846BD46F9
:10048C0080BC70470030014080B582B000AF03469D
:10049C000A46FB711346BB71FFF78CFFBB7903F067
:1004AC007F03DBB21846FFF7BBFFFB791846FFF75B
:1004BC00B7FFFFF78DFF00BF0837BD4680BD80B585
:1004CC0084B000AF0346FB71FFF774FFFB7963F058
:1004DC007F03DBB21846FFF7A3FFFFF7B9FF034614
:1004EC00FB73FFF775FFFB7B18461037BD4680BDCD
:1004FC0080B500AF00F006F800F010F800F016F828
:10050C0000BF80BD80B500AFE021B620FFF7BCFF77
:10051C004FF47A70FFF7A8FE00BF80BD80B500AF26
:10052C00F4215720FFF7B0FF00BF80BD80B500AFAE
:10053C00F5215020FFF7A8FF00BF80BD80B500AFAC
:10054C0000F004F800F04CF800BF80BD80B582B01C
:10055C0000AF8920FFF7B3FF0346FB718820FFF73C
:10056C00AEFF0346BB71FB791BB21B021AB2BB79FF
:10057C001BB213431BB29AB2164B1A808B20FFF797
:10058C009EFF0346FB718A20FFF799FF0346BB7160
:10059C00FB791BB21B021AB2BB791BB213431AB202
:1005AC000D4B1A808D20FFF78AFF0346FB718C20C0
:1005BC00FFF785FF0346BB71FB791BB21B021AB216
:1005CC00BB791BB213431AB2044B1A8000BF083715
:1005DC00BD4680BD1C000020200000202200002011
:1005EC0080B582B000AF8F20FFF769FF0346FB7127
:1005FC008E20FFF764FF0346BB71FB791BB21B0215
:10060C001AB2BB791BB213431BB29AB2524B1A806B
:10061C009120FFF754FF0346FB719020FFF74FFF2B
:10062C000346BB71FB791BB21B021AB2BB791BB21E
:10063C0013431AB2494B1A809320FFF740FF03462D
:10064C00FB719220FFF73BFF0346BB71FB791BB29A
:10065C001B021AB2BB791BB213431AB2404B1A805D
:10066C009520FFF72CFF0346FB719420FFF727FF23
:10067C000346BB71FB791BB21B021AB2BB791BB2CE
:10068C0013431AB2374B1A809720FFF718FF034613
:10069C00FB719620FFF713FF0346BB71FB791BB26E
:1006AC001B021AB2BB791BB213431AB22E4B1A801F
:1006BC009920FFF704FF0346FB719820FFF7FFFE1C
:1006CC000346BB71FB791BB21B021AB2BB791BB27E
:1006DC0013431AB2254B1A809B20FFF7F0FE0346FA
:1006EC00FB719A20FFF7EBFE0346BB71FB791BB243
:1006FC001B021AB2BB791BB213431AB21C4B1A80E1
:10070C009D20FFF7DCFE0346FB719C20FFF7D7FE14
:10071C000346BB71FB791BB21B021AB2BB791BB22D
:10072C0013431AB2134B1A809F20FFF7C8FE0346DF
:10073C00FB719E20FFF7C3FE0346BB71FB791BB216
:10074C001B021AB2BB791BB213431AB20A4B1A80A2
:10075C0000BF0837BD4680BD1E00002024000020CD
:10076C0026000020280000202A0000202C00002059
:10077C002E000020300000203200002080B582B016
:10078C0000AF7860396000F031F802467B681A607F
:10079C0000F04DF802463B681A607B681B681846EF
:1007AC0000F066F802467B681A603B681B681846C6
:1007BC0000F09EF802463B681A607B681B680A4A88
:1007CC0082FB03125211DB17D21A7B681A603B684A
:1007DC001B68054AA2FB03235A093B681A6000BF39
:1007EC000837BD4680BD00BF1F85EB5180B582B078
:1007FC0000AFFC20FFF763FE0346FB71FB20FFF705
:10080C005EFE0346BB71FA20FFF759FE03467B716F
:10081C007B791A03BB791B011343FA791209D2B203
:10082C0013433B603B6818460837BD4680BD80B516
:10083C0082B000AFF920FFF742FE0346FB71F820AF
:10084C00FFF73DFE0346BB71F720FFF738FE03466A
:10085C007B717B791A03BB791B011343FA7912095B
:10086C00D2B213433B603B6818460837BD4680BD87
:10087C0080B487B000AF78607B68DA10184B1B88A7
:10088C005B00D31A174AB2F9002002FB03F3DB1208
:10089C007B617B681B11124A12889B1A7A681211B1
:1008AC000F490988521A02FB03F31B130E4AB2F9C3
:1008BC00002002FB03F39B133B617A693B691344F1
:1008CC000A4A1360094B1A6813469B001344803381
:1008DC001B12FB60FB6818461C37BD4680BC70477A
:1008EC001C000020200000202200002034000020EA
:1008FC002DE9B00FB7B000AFC7F8BC00C04B1B68F8
:10090C005B10A3F57A43DA171C461546C7E9324546
:10091C00D7E932234FF000044FF00005940844EA65
:10092C0083749D10D7E932234FF000004FF0000183
:10093C00900840EA8370991000FB05F204FB01F368
:10094C001344A4FB00894B4499464FF000004FF030
:10095C0000014FEAD82040EA49504FEAE921A94B5F
:10096C00B3F900301BB2DA17C7F88830C7F88C20FF
:10097C00D7E92245234603FB01F22B4600FB03F388
:10098C0013442246A0FB0221C7F89410C7F890200C
:10099C00D7F894201344C7F89430D7E92434C7E926
:1009AC003034C7E93034984BB3F900301BB2DA1746
:1009BC00C7F88030C7F88420D7F8C830D7E920456D
:1009CC002A4602FB03F2D7F8CC30214601FB03F395
:1009DC001A44D7F8C8302146A3FB01AB02EB0B033A
:1009EC009B461AEB0A033B624BEB0B037B62D7E98A
:1009FC000801D7E930231418BC614B41FB61D7E9DE
:100A0C000634C7E93034D7E930234FF000004FF0FB
:100A1C000001900840EA837099107C4BB3F90030C8
:100A2C001B04DA17BB67FA67D7E91E452346C318C0
:100A3C003B612B4641EB03037B61D7E90434C7E9E7
:100A4C003034734BB3F900301BB2DA173B677A675B
:100A5C00D7E932234FF000044FF00005940844EA24
:100A6C0083749D10D7E932234FF000004FF0000142
:100A7C00900840EA8370991000FB05F204FB01F327
:100A8C001344A4FB0021C7F8B410C7F8B020D7F862
:100A9C00B4201344C7F8B4304FF000024FF00003F9
:100AAC00D7E92C4521464A0B204629460C4642EAFA
:100ABC00C4424B13D7E91C45294602FB01F02146E1
:100ACC0001FB03F101442046A0FB0232C7F8AC2025
:100ADC00C7F8A830D7F8AC30CB18C7F8AC304FF00B
:100AEC0000004FF00001D7E92A452346D8082A46D2
:100AFC0040EA42702B46D910464BB3F900301BB27A
:100B0C00DA17BB66FA66D7F8C830D7E91A894A46AD
:100B1C0002FB03F2D7F8CC30444604FB03F31A442F
:100B2C00D7F8C8304446A3FB0434C7F8A440C7F830
:100B3C00A030D7F8A430D318C7F8A4304FF0000277
:100B4C004FF00003D7E9288944466208CC4642EAB4
:100B5C00CC724C46631084183C6641EB03037B66F5
:100B6C004FF000024FF00003D7E9184521468A0CDC
:100B7C00204629460C4642EA84328B14C7E93223BC
:100B8C00D7E9322312F50041B96543F10003FB6547
:100B9C00214B1B889BB200223B657A65D7E9163442
:100BAC002246D7E91489414601FB02F24D4618460C
:100BBC002146034603FB05F3134402464146A2FBC0
:100BCC000121C7F89C10C7F89820D7F89C20134433
:100BDC00C7F89C304FF000024FF00003D7E92645D0
:100BEC002146CA0B204629460C4642EA4442CB1306
:100BFC00C7E93223D7E9322313430FD100239FE0F7
:100C0C00340000202C0000202A00002028000020A6
:100C1C0026000020240000201E000020D7F8BC3045
:100C2C00C3F580130022BB64FA64D7E930234FF07C
:100C3C0000004FF00001100B40EA03501913D7E9E4
:100C4C0012341A46121A3A64234663EB01037B648E
:100C5C003A6C40F6354302FB03F3C7F8D430D7F8AF
:100C6C00D430002B09DBD7F8D4305A00D7F8C83071
:100C7C00B2FBF3F3C7F8D43008E0D7F8C830D7F894
:100C8C00D420B2FBF3F35B00C7F8D4302F4BB3F98D
:100C9C0000301946D7F8D430DB08D7F8D420D20866
:100CAC0002FB03F35B0B01FB03F31B13DA17BB60B3
:100CBC00FA60D7E90234C7E93234D7F8D4309B084C
:100CCC001A46234BB3F9003002FB03F35B13DA171C
:100CDC003B607A60D7E90034C7E93034D7E9320198
:100CEC00D7E930238418BC6341EB0303FB63194B36
:100CFC00B3F900301BB2DA173B637A63D7E90E45C0
:100D0C002346D7E90C0102469B18BB620B462A46C8
:100D1C0042EB0303FB624FF000024FF00003D7E9F4
:100D2C000A4521460A09204629460C4642EA047225
:100D3C000B11D7F8D4301344C7F8D430D7F8D430CB
:100D4C001846DC37BD46BDE8B00F704732000020B6
:100D5C00300000202E00002080B400AF154B1B6823
:100D6C00144A43F001031360124B5A681149124B99
:100D7C0013404B600F4B1B680E4A23F0847323F413
:100D8C00803313600B4B1B680A4A23F480231360D7
:100D9C00084B5B68074A23F4FE035360054B4FF482
:100DAC001F029A60054B4FF000629A6000BFBD466F
:100DBC0080BC7047001002400000FFF800ED00E01E
:100DCC00F8B500BFF8BC08BC9E467047F8B500BF2C
:080DDC00F8BC08BC9E467047FC
:040DE400750100088D
:040DE8004D010008B1
:04000005080001E10D
:00000001FF
