:020000040800F2
:1000000000500020E1010008290200082902000830
:100010002902000829020008290200080000000047
:10002000000000000000000000000000290200089D
:100030002902000800000000290200082902000827
:1000400029020008290200082902000829020008E4
:1000500029020008290200082902000829020008D4
:1000600029020008290200082902000829020008C4
:1000700029020008290200082902000829020008B4
:1000800029020008290200082902000829020008A4
:100090002902000829020008290200082902000894
:1000A0002902000829020008290200082902000884
:1000B0002902000829020008290200082902000874
:1000C0002902000829020008290200082902000864
:1000D0002902000829020008290200082902000854
:1000E0002902000829020008290200080000000077
:1000F0000000000000000000000000000000000000
:0C01000000000000000000005FF808F1A3
:10010C000348044B834202D0034B03B1184770479A
:10011C000000002000000020000000000548064BF5
:10012C001B1AD90F01EBA301491002D0034B03B1E9
:10013C00184770470000002000000020000000005D
:10014C0010B5064C237843B9FFF7DAFF044B13B113
:10015C000448AFF300800123237010BD0000002081
:10016C00000000003C03000808B5054B1BB1054915
:10017C000548AFF30080BDE80840FFF7CFBF00BFD4
:10018C0000000000040000203C03000870B50D4D79
:10019C000D4C641BA4100026A64209D10B4D0C4C2F
:1001AC0000F0C6F8641BA4100026A64205D170BD51
:1001BC0055F8043B98470136EEE755F8043B984751
:1001CC000136F2E7540300085403000854030008F6
:1001DC005803000800F086F80B480C490C4A002321
:1001EC0002E0D458C4500433C4188C42F9D3094AE1
:1001FC00094C002301E013600432A242FBD3FFF749
:10020C00C5FF00F057F870470000002000000020E8
:10021C005C030008000000201C000020FEE700002A
:10022C00044B9A6942F400729A619A6942F0040292
:10023C009A61704700100240044B002201215A6061
:10024C00996038211961DA625A63704700240140C1
:10025C00074B9A6842F001029A609A6842F4800255
:10026C009A601A689207FCD5D86C80B2704700BFB0
:10027C0000240140084B1A6822F003021A601A6825
:10028C0022F00C021A601A6822F470221A601A68A2
:10029C0042F400321A60704700080140044BDA68DF
:1002AC0018B142F01002DA60704722F01002FAE73F
:1002BC000008014008B5FFF7B3FFFFF7BDFFFFF7DC
:1002CC00D9FF0749FFF7C4FF632804D8CB6843F074
:1002DC001003CB60F6E70020FFF7E0FFF2E700BF6A
:1002EC00000801400F4B1A6842F001021A6059686D
:1002FC000D4A0A405A601A6822F0847222F4803245
:10030C001A601A6822F480221A605A6822F4FE02DB
:10031C005A604FF41F029A60044B4FF000629A60CF
:10032C00704700BF001002400000FFF800ED00E035
:10033C00F8B500BFF8BC08BC9E467047F8B500BFC6
:08034C00F8BC08BC9E46704796
:040354007501000827
:040358004D0100084B
:04000005080001E10D
:00000001FF
