:020000040800F2
:1000000000500020E1010008290200082902000830
:100010002902000829020008290200080000000047
:10002000000000000000000000000000290200089D
:100030002902000800000000290200082902000827
:1000400029020008290200082902000829020008E4
:1000500029020008290200082902000829020008D4
:1000600029020008290200082902000829020008C4
:1000700029020008290200082902000829020008B4
:1000800029020008290200082902000829020008A4
:100090002902000829020008290200082902000894
:1000A0002902000829020008290200082902000884
:1000B0002902000829020008290200082902000874
:1000C0002902000829020008290200082902000864
:1000D0002902000829020008290200082902000854
:1000E0002902000829020008290200080000000077
:1000F0000000000000000000000000000000000000
:0C01000000000000000000005FF808F1A3
:10010C000348044B834202D0034B03B1184770479A
:10011C000000002000000020000000000548064BF5
:10012C001B1AD90F01EBA301491002D0034B03B1E9
:10013C00184770470000002000000020000000005D
:10014C0010B5064C237843B9FFF7DAFF044B13B113
:10015C000448AFF300800123237010BD0000002081
:10016C00000000002C05000808B5054B1BB1054923
:10017C000548AFF30080BDE80840FFF7CFBF00BFD4
:10018C0000000000040000202C05000870B50D4D87
:10019C000D4C641BA4100026A64209D10B4D0C4C2F
:1001AC0000F0BEF9641BA4100026A64205D170BD58
:1001BC0055F8043B98470136EEE755F8043B984751
:1001CC000136F2E744050008440500084405000820
:1001DC004805000800F070F90B480C490C4A002344
:1001EC0002E0D458C4500433C4188C42F9D3094AE1
:1001FC00094C002301E013600432A242FBD3FFF749
:10020C00C5FF00F00DF87047000000200000002032
:10021C004C050008000000201C000020FEE7000038
:10022C0080B582B000AF00F03BF800F05FF800F052
:10023C00D5F82A23FB710023BB71FB7919460A48B8
:10024C0000F004F94FF47A7000F012F8074800F04F
:10025C001FF90346BB714FF47A7000F009F8FB7973
:10026C000133FB7100BFE8E7004400400048004048
:10027C0080B485B000AF78607B684FF47A7202FB73
:10028C0003F3FB6000E000BFFB685A1EFA60002B12
:10029C00F9D100BF00BF1437BD4680BC70470000C9
:1002AC0080B400AF104B9B690F4A43F00803936175
:1002BC000D4B9B690C4A43F0040393610A4B9B69F9
:1002CC00094A43F001039361074BDB69064A43F487
:1002DC000033D361044BDB69034A43F48023D361BD
:1002EC0000BFBD4680BC70470010024080B500AF17
:1002FC0000F004F800F03AF800BF80BD80B400AF05
:10030C00194B1B68184A23F440731360164B1B6877
:10031C00154A23F440531360134B1B68124A23F401
:10032C0040631360104B1B680F4A23F44043136067
:10033C000D4B1B680C4A43F4407313600A4B1B684B
:10034C00094A43F400631360074B1B68064A43F4E5
:10035C0000431360044BDB68034A43F00803D3608B
:10036C0000BFBD4680BC70470008014080B400AFA0
:10037C00194B5B68184A23F440735360164B5B6847
:10038C00154A23F440535360134B5B68124A23F411
:10039C0040635360104B5B680F4A23F44043536037
:1003AC000D4B5B680C4A43F4407353600A4B5B681B
:1003BC00094A43F400635360074B5B68064A43F4F5
:1003CC0000435360044BDB68034A43F40063D3607F
:1003DC0000BFBD4680BC7047000C014080B500AF2B
:1003EC0000F004F800F01AF800BF80BD80B400AF34
:1003FC00094B40F6A6629A60074BDB68064A43F04D
:10040C000C03D360044BDB68034A43F40053D36002
:10041C0000BFBD4680BC70470044004080B400AFB4
:10042C00094B40F6A6629A60074BDB68064A43F01C
:10043C000C03D360044BDB68034A43F40053D360D2
:10044C0000BFBD4680BC70470048004080B483B0FC
:10045C0000AF78600B46FB7000BF7B681B6803F035
:10046C008003002BF9D0FA787B685A6000BF7B6858
:10047C001B6803F04003002BF9D07B681B6823F04A
:10048C0040027B681A6000BF0C37BD4680BC7047C9
:10049C0080B483B000AF786000BF7B681B6803F04A
:1004AC002003002BF9D07B685B68DBB218460C3755
:1004BC00BD4680BC7047000080B400AF154B1B6874
:1004CC00144A43F001031360124B5A681149124B42
:1004DC0013404B600F4B1B680E4A23F0847323F4BC
:1004EC00803313600B4B1B680A4A23F48023136080
:1004FC00084B5B68074A23F4FE035360054B4FF42B
:10050C001F029A60054B4FF000629A6000BFBD4617
:10051C0080BC7047001002400000FFF800ED00E0C6
:10052C00F8B500BFF8BC08BC9E467047F8B500BFD4
:08053C00F8BC08BC9E467047A4
:040544007501000835
:040548004D01000859
:04000005080001E10D
:00000001FF
